{
  "contractName": "Klaystagram",
  "abi": [
    {
      "constant": true,
      "inputs": [
        {
          "name": "interfaceId",
          "type": "bytes4"
        }
      ],
      "name": "supportsInterface",
      "outputs": [
        {
          "name": "",
          "type": "bool"
        }
      ],
      "payable": false,
      "stateMutability": "view",
      "type": "function"
    },
    {
      "constant": true,
      "inputs": [
        {
          "name": "tokenId",
          "type": "uint256"
        }
      ],
      "name": "getApproved",
      "outputs": [
        {
          "name": "",
          "type": "address"
        }
      ],
      "payable": false,
      "stateMutability": "view",
      "type": "function"
    },
    {
      "constant": false,
      "inputs": [
        {
          "name": "to",
          "type": "address"
        },
        {
          "name": "tokenId",
          "type": "uint256"
        }
      ],
      "name": "approve",
      "outputs": [],
      "payable": false,
      "stateMutability": "nonpayable",
      "type": "function"
    },
    {
      "constant": true,
      "inputs": [],
      "name": "totalSupply",
      "outputs": [
        {
          "name": "",
          "type": "uint256"
        }
      ],
      "payable": false,
      "stateMutability": "view",
      "type": "function"
    },
    {
      "constant": true,
      "inputs": [
        {
          "name": "owner",
          "type": "address"
        },
        {
          "name": "index",
          "type": "uint256"
        }
      ],
      "name": "tokenOfOwnerByIndex",
      "outputs": [
        {
          "name": "",
          "type": "uint256"
        }
      ],
      "payable": false,
      "stateMutability": "view",
      "type": "function"
    },
    {
      "constant": false,
      "inputs": [
        {
          "name": "from",
          "type": "address"
        },
        {
          "name": "to",
          "type": "address"
        },
        {
          "name": "tokenId",
          "type": "uint256"
        }
      ],
      "name": "safeTransferFrom",
      "outputs": [],
      "payable": false,
      "stateMutability": "nonpayable",
      "type": "function"
    },
    {
      "constant": true,
      "inputs": [
        {
          "name": "index",
          "type": "uint256"
        }
      ],
      "name": "tokenByIndex",
      "outputs": [
        {
          "name": "",
          "type": "uint256"
        }
      ],
      "payable": false,
      "stateMutability": "view",
      "type": "function"
    },
    {
      "constant": true,
      "inputs": [
        {
          "name": "tokenId",
          "type": "uint256"
        }
      ],
      "name": "ownerOf",
      "outputs": [
        {
          "name": "",
          "type": "address"
        }
      ],
      "payable": false,
      "stateMutability": "view",
      "type": "function"
    },
    {
      "constant": true,
      "inputs": [
        {
          "name": "owner",
          "type": "address"
        }
      ],
      "name": "balanceOf",
      "outputs": [
        {
          "name": "",
          "type": "uint256"
        }
      ],
      "payable": false,
      "stateMutability": "view",
      "type": "function"
    },
    {
      "constant": false,
      "inputs": [
        {
          "name": "to",
          "type": "address"
        },
        {
          "name": "approved",
          "type": "bool"
        }
      ],
      "name": "setApprovalForAll",
      "outputs": [],
      "payable": false,
      "stateMutability": "nonpayable",
      "type": "function"
    },
    {
      "constant": false,
      "inputs": [
        {
          "name": "from",
          "type": "address"
        },
        {
          "name": "to",
          "type": "address"
        },
        {
          "name": "tokenId",
          "type": "uint256"
        },
        {
          "name": "_data",
          "type": "bytes"
        }
      ],
      "name": "safeTransferFrom",
      "outputs": [],
      "payable": false,
      "stateMutability": "nonpayable",
      "type": "function"
    },
    {
      "constant": true,
      "inputs": [
        {
          "name": "owner",
          "type": "address"
        },
        {
          "name": "operator",
          "type": "address"
        }
      ],
      "name": "isApprovedForAll",
      "outputs": [
        {
          "name": "",
          "type": "bool"
        }
      ],
      "payable": false,
      "stateMutability": "view",
      "type": "function"
    },
    {
      "anonymous": false,
      "inputs": [
        {
          "indexed": true,
          "name": "tokenId",
          "type": "uint256"
        },
        {
          "indexed": false,
          "name": "photo",
          "type": "bytes"
        },
        {
          "indexed": false,
          "name": "title",
          "type": "string"
        },
        {
          "indexed": false,
          "name": "location",
          "type": "string"
        },
        {
          "indexed": false,
          "name": "description",
          "type": "string"
        },
        {
          "indexed": false,
          "name": "timestamp",
          "type": "uint256"
        }
      ],
      "name": "PhotoUploaded",
      "type": "event"
    },
    {
      "anonymous": false,
      "inputs": [
        {
          "indexed": true,
          "name": "from",
          "type": "address"
        },
        {
          "indexed": true,
          "name": "to",
          "type": "address"
        },
        {
          "indexed": true,
          "name": "tokenId",
          "type": "uint256"
        }
      ],
      "name": "Transfer",
      "type": "event"
    },
    {
      "anonymous": false,
      "inputs": [
        {
          "indexed": true,
          "name": "owner",
          "type": "address"
        },
        {
          "indexed": true,
          "name": "approved",
          "type": "address"
        },
        {
          "indexed": true,
          "name": "tokenId",
          "type": "uint256"
        }
      ],
      "name": "Approval",
      "type": "event"
    },
    {
      "anonymous": false,
      "inputs": [
        {
          "indexed": true,
          "name": "owner",
          "type": "address"
        },
        {
          "indexed": true,
          "name": "operator",
          "type": "address"
        },
        {
          "indexed": false,
          "name": "approved",
          "type": "bool"
        }
      ],
      "name": "ApprovalForAll",
      "type": "event"
    },
    {
      "constant": false,
      "inputs": [
        {
          "name": "photo",
          "type": "bytes"
        },
        {
          "name": "title",
          "type": "string"
        },
        {
          "name": "location",
          "type": "string"
        },
        {
          "name": "description",
          "type": "string"
        }
      ],
      "name": "uploadPhoto",
      "outputs": [],
      "payable": false,
      "stateMutability": "nonpayable",
      "type": "function"
    },
    {
      "constant": false,
      "inputs": [
        {
          "name": "tokenId",
          "type": "uint256"
        },
        {
          "name": "to",
          "type": "address"
        }
      ],
      "name": "transferOwnership",
      "outputs": [
        {
          "name": "",
          "type": "uint256"
        },
        {
          "name": "",
          "type": "address"
        },
        {
          "name": "",
          "type": "address"
        },
        {
          "name": "",
          "type": "address"
        }
      ],
      "payable": false,
      "stateMutability": "nonpayable",
      "type": "function"
    },
    {
      "constant": false,
      "inputs": [
        {
          "name": "from",
          "type": "address"
        },
        {
          "name": "to",
          "type": "address"
        },
        {
          "name": "tokenId",
          "type": "uint256"
        }
      ],
      "name": "transferFrom",
      "outputs": [],
      "payable": false,
      "stateMutability": "nonpayable",
      "type": "function"
    },
    {
      "constant": true,
      "inputs": [],
      "name": "getTotalPhotoCount",
      "outputs": [
        {
          "name": "",
          "type": "uint256"
        }
      ],
      "payable": false,
      "stateMutability": "view",
      "type": "function"
    },
    {
      "constant": true,
      "inputs": [
        {
          "name": "tokenId",
          "type": "uint256"
        }
      ],
      "name": "getPhoto",
      "outputs": [
        {
          "name": "",
          "type": "uint256"
        },
        {
          "name": "",
          "type": "address[]"
        },
        {
          "name": "",
          "type": "bytes"
        },
        {
          "name": "",
          "type": "string"
        },
        {
          "name": "",
          "type": "string"
        },
        {
          "name": "",
          "type": "string"
        },
        {
          "name": "",
          "type": "uint256"
        }
      ],
      "payable": false,
      "stateMutability": "view",
      "type": "function"
    }
  ],
  "bytecode": "0x60806040526200001c6301ffc9a760e01b6200005260201b60201c565b620000346380ac58cd60e01b6200005260201b60201c565b6200004c63780e9d6360e01b6200005260201b60201c565b6200015b565b63ffffffff60e01b817bffffffffffffffffffffffffffffffffffffffffffffffffffffffff19161415620000ef576040517f08c379a000000000000000000000000000000000000000000000000000000000815260040180806020018281038252601c8152602001807f4552433136353a20696e76616c696420696e746572666163652069640000000081525060200191505060405180910390fd5b6001600080837bffffffffffffffffffffffffffffffffffffffffffffffffffffffff19167bffffffffffffffffffffffffffffffffffffffffffffffffffffffff1916815260200190815260200160002060006101000a81548160ff02191690831515021790555050565b612fcb806200016b6000396000f3fe608060405234801561001057600080fd5b506004361061010b5760003560e01c80634f6ccce7116100a257806399f52d9e1161007157806399f52d9e146105ae578063a22cb4651461082e578063b6be128a1461087e578063b88d4fde14610abf578063e985e9c514610bc45761010b565b80634f6ccce7146104885780636352211e146104ca57806370a082311461053857806370dc232a146105905761010b565b806323b872dd116100de57806323b872dd1461024f57806329507f73146102bd5780632f745c59146103b857806342842e0e1461041a5761010b565b806301ffc9a714610110578063081812fc14610175578063095ea7b3146101e357806318160ddd14610231575b600080fd5b61015b6004803603602081101561012657600080fd5b8101908080357bffffffffffffffffffffffffffffffffffffffffffffffffffffffff19169060200190929190505050610c40565b604051808215151515815260200191505060405180910390f35b6101a16004803603602081101561018b57600080fd5b8101908080359060200190929190505050610ca7565b604051808273ffffffffffffffffffffffffffffffffffffffff1673ffffffffffffffffffffffffffffffffffffffff16815260200191505060405180910390f35b61022f600480360360408110156101f957600080fd5b81019080803573ffffffffffffffffffffffffffffffffffffffff16906020019092919080359060200190929190505050610d42565b005b610239610f1b565b6040518082815260200191505060405180910390f35b6102bb6004803603606081101561026557600080fd5b81019080803573ffffffffffffffffffffffffffffffffffffffff169060200190929190803573ffffffffffffffffffffffffffffffffffffffff16906020019092919080359060200190929190505050610f28565b005b610309600480360360408110156102d357600080fd5b8101908080359060200190929190803573ffffffffffffffffffffffffffffffffffffffff169060200190929190505050610fb2565b604051808581526020018473ffffffffffffffffffffffffffffffffffffffff1673ffffffffffffffffffffffffffffffffffffffff1681526020018373ffffffffffffffffffffffffffffffffffffffff1673ffffffffffffffffffffffffffffffffffffffff1681526020018273ffffffffffffffffffffffffffffffffffffffff1673ffffffffffffffffffffffffffffffffffffffff16815260200194505050505060405180910390f35b610404600480360360408110156103ce57600080fd5b81019080803573ffffffffffffffffffffffffffffffffffffffff169060200190929190803590602001909291905050506110f5565b6040518082815260200191505060405180910390f35b6104866004803603606081101561043057600080fd5b81019080803573ffffffffffffffffffffffffffffffffffffffff169060200190929190803573ffffffffffffffffffffffffffffffffffffffff169060200190929190803590602001909291905050506111b4565b005b6104b46004803603602081101561049e57600080fd5b81019080803590602001909291905050506111d4565b6040518082815260200191505060405180910390f35b6104f6600480360360208110156104e057600080fd5b8101908080359060200190929190505050611254565b604051808273ffffffffffffffffffffffffffffffffffffffff1673ffffffffffffffffffffffffffffffffffffffff16815260200191505060405180910390f35b61057a6004803603602081101561054e57600080fd5b81019080803573ffffffffffffffffffffffffffffffffffffffff16906020019092919050505061131c565b6040518082815260200191505060405180910390f35b6105986113f1565b6040518082815260200191505060405180910390f35b61082c600480360360808110156105c457600080fd5b81019080803590602001906401000000008111156105e157600080fd5b8201836020820111156105f357600080fd5b8035906020019184600183028401116401000000008311171561061557600080fd5b91908080601f016020809104026020016040519081016040528093929190818152602001838380828437600081840152601f19601f8201169050808301925050505050505091929192908035906020019064010000000081111561067857600080fd5b82018360208201111561068a57600080fd5b803590602001918460018302840111640100000000831117156106ac57600080fd5b91908080601f016020809104026020016040519081016040528093929190818152602001838380828437600081840152601f19601f8201169050808301925050505050505091929192908035906020019064010000000081111561070f57600080fd5b82018360208201111561072157600080fd5b8035906020019184600183028401116401000000008311171561074357600080fd5b91908080601f016020809104026020016040519081016040528093929190818152602001838380828437600081840152601f19601f820116905080830192505050505050509192919290803590602001906401000000008111156107a657600080fd5b8201836020820111156107b857600080fd5b803590602001918460018302840111640100000000831117156107da57600080fd5b91908080601f016020809104026020016040519081016040528093929190818152602001838380828437600081840152601f19601f820116905080830192505050505050509192919290505050611400565b005b61087c6004803603604081101561084457600080fd5b81019080803573ffffffffffffffffffffffffffffffffffffffff169060200190929190803515159060200190929190505050611783565b005b6108aa6004803603602081101561089457600080fd5b8101908080359060200190929190505050611926565b60405180888152602001806020018060200180602001806020018060200187815260200186810386528c818151815260200191508051906020019060200280838360005b838110156109095780820151818401526020810190506108ee565b5050505090500186810385528b818151815260200191508051906020019080838360005b8381101561094857808201518184015260208101905061092d565b50505050905090810190601f1680156109755780820380516001836020036101000a031916815260200191505b5086810384528a818151815260200191508051906020019080838360005b838110156109ae578082015181840152602081019050610993565b50505050905090810190601f1680156109db5780820380516001836020036101000a031916815260200191505b50868103835289818151815260200191508051906020019080838360005b83811015610a145780820151818401526020810190506109f9565b50505050905090810190601f168015610a415780820380516001836020036101000a031916815260200191505b50868103825288818151815260200191508051906020019080838360005b83811015610a7a578082015181840152602081019050610a5f565b50505050905090810190601f168015610aa75780820380516001836020036101000a031916815260200191505b509c5050505050505050505050505060405180910390f35b610bc260048036036080811015610ad557600080fd5b81019080803573ffffffffffffffffffffffffffffffffffffffff169060200190929190803573ffffffffffffffffffffffffffffffffffffffff1690602001909291908035906020019092919080359060200190640100000000811115610b3c57600080fd5b820183602082011115610b4e57600080fd5b80359060200191846001830284011164010000000083111715610b7057600080fd5b91908080601f016020809104026020016040519081016040528093929190818152602001838380828437600081840152601f19601f820116905080830192505050505050509192919290505050611d6b565b005b610c2660048036036040811015610bda57600080fd5b81019080803573ffffffffffffffffffffffffffffffffffffffff169060200190929190803573ffffffffffffffffffffffffffffffffffffffff169060200190929190505050611ddd565b604051808215151515815260200191505060405180910390f35b6000806000837bffffffffffffffffffffffffffffffffffffffffffffffffffffffff19167bffffffffffffffffffffffffffffffffffffffffffffffffffffffff1916815260200190815260200160002060009054906101000a900460ff169050919050565b6000610cb282611e71565b610d07576040517f08c379a000000000000000000000000000000000000000000000000000000000815260040180806020018281038252602c815260200180612ecd602c913960400191505060405180910390fd5b6002600083815260200190815260200160002060009054906101000a900473ffffffffffffffffffffffffffffffffffffffff169050919050565b6000610d4d82611254565b90508073ffffffffffffffffffffffffffffffffffffffff168373ffffffffffffffffffffffffffffffffffffffff161415610dd4576040517f08c379a0000000000000000000000000000000000000000000000000000000008152600401808060200182810382526021815260200180612f226021913960400191505060405180910390fd5b8073ffffffffffffffffffffffffffffffffffffffff163373ffffffffffffffffffffffffffffffffffffffff161480610e145750610e138133611ddd565b5b610e69576040517f08c379a0000000000000000000000000000000000000000000000000000000008152600401808060200182810382526038815260200180612e426038913960400191505060405180910390fd5b826002600084815260200190815260200160002060006101000a81548173ffffffffffffffffffffffffffffffffffffffff021916908373ffffffffffffffffffffffffffffffffffffffff160217905550818373ffffffffffffffffffffffffffffffffffffffff168273ffffffffffffffffffffffffffffffffffffffff167f8c5be1e5ebec7d5bd14f71427d1e84f3dd0314c0f7b2291e5b200ac8c7c3b92560405160405180910390a4505050565b6000600780549050905090565b610f33838383611ee3565b600960008281526020019081526020016000206001018290806001815401808255809150509060018203906000526020600020016000909192909190916101000a81548173ffffffffffffffffffffffffffffffffffffffff021916908373ffffffffffffffffffffffffffffffffffffffff16021790555050505050565b600080600080610fc33386886111b4565b60006009600088815260200190815260200160002060010180549050905060096000888152602001908152602001600020600001546009600089815260200190815260200160002060010160008154811061101a57fe5b9060005260206000200160009054906101000a900473ffffffffffffffffffffffffffffffffffffffff16600960008a8152602001908152602001600020600101600284038154811061106957fe5b9060005260206000200160009054906101000a900473ffffffffffffffffffffffffffffffffffffffff16600960008b815260200190815260200160002060010160018503815481106110b857fe5b9060005260206000200160009054906101000a900473ffffffffffffffffffffffffffffffffffffffff1694509450945094505092959194509250565b60006111008361131c565b8210611157576040517f08c379a000000000000000000000000000000000000000000000000000000000815260040180806020018281038252602b815260200180612d95602b913960400191505060405180910390fd5b600560008473ffffffffffffffffffffffffffffffffffffffff1673ffffffffffffffffffffffffffffffffffffffff16815260200190815260200160002082815481106111a157fe5b9060005260206000200154905092915050565b6111cf83838360405180602001604052806000815250611d6b565b505050565b60006111de610f1b565b8210611235576040517f08c379a000000000000000000000000000000000000000000000000000000000815260040180806020018281038252602c815260200180612f74602c913960400191505060405180910390fd5b6007828154811061124257fe5b90600052602060002001549050919050565b6000806001600084815260200190815260200160002060009054906101000a900473ffffffffffffffffffffffffffffffffffffffff169050600073ffffffffffffffffffffffffffffffffffffffff168173ffffffffffffffffffffffffffffffffffffffff161415611313576040517f08c379a0000000000000000000000000000000000000000000000000000000008152600401808060200182810382526029815260200180612ea46029913960400191505060405180910390fd5b80915050919050565b60008073ffffffffffffffffffffffffffffffffffffffff168273ffffffffffffffffffffffffffffffffffffffff1614156113a3576040517f08c379a000000000000000000000000000000000000000000000000000000000815260040180806020018281038252602a815260200180612e7a602a913960400191505060405180910390fd5b6113ea600360008473ffffffffffffffffffffffffffffffffffffffff1673ffffffffffffffffffffffffffffffffffffffff168152602001908152602001600020611f52565b9050919050565b60006113fb610f1b565b905090565b6000600161140c610f1b565b0190506114193382611f60565b6060611423612b39565b6040518060e001604052808481526020018381526020018881526020018781526020018681526020018581526020014281525090508060096000858152602001908152602001600020600082015181600001556020820151816001019080519060200190611492929190612b76565b5060408201518160020190805190602001906114af929190612c00565b5060608201518160030190805190602001906114cc929190612c80565b5060808201518160040190805190602001906114e9929190612c80565b5060a0820151816005019080519060200190611506929190612c80565b5060c08201518160060155905050600960008481526020019081526020016000206001013390806001815401808255809150509060018203906000526020600020016000909192909190916101000a81548173ffffffffffffffffffffffffffffffffffffffff021916908373ffffffffffffffffffffffffffffffffffffffff16021790555050827f0971e902ddb5848e55de7462bd04b0602c56f164021096456aefe8ad55b59e598888888842604051808060200180602001806020018060200186815260200185810385528a818151815260200191508051906020019080838360005b838110156116075780820151818401526020810190506115ec565b50505050905090810190601f1680156116345780820380516001836020036101000a031916815260200191505b50858103845289818151815260200191508051906020019080838360005b8381101561166d578082015181840152602081019050611652565b50505050905090810190601f16801561169a5780820380516001836020036101000a031916815260200191505b50858103835288818151815260200191508051906020019080838360005b838110156116d35780820151818401526020810190506116b8565b50505050905090810190601f1680156117005780820380516001836020036101000a031916815260200191505b50858103825287818151815260200191508051906020019080838360005b8381101561173957808201518184015260208101905061171e565b50505050905090810190601f1680156117665780820380516001836020036101000a031916815260200191505b50995050505050505050505060405180910390a250505050505050565b3373ffffffffffffffffffffffffffffffffffffffff168273ffffffffffffffffffffffffffffffffffffffff161415611825576040517f08c379a00000000000000000000000000000000000000000000000000000000081526004018080602001828103825260198152602001807f4552433732313a20617070726f766520746f2063616c6c65720000000000000081525060200191505060405180910390fd5b80600460003373ffffffffffffffffffffffffffffffffffffffff1673ffffffffffffffffffffffffffffffffffffffff16815260200190815260200160002060008473ffffffffffffffffffffffffffffffffffffffff1673ffffffffffffffffffffffffffffffffffffffff16815260200190815260200160002060006101000a81548160ff0219169083151502179055508173ffffffffffffffffffffffffffffffffffffffff163373ffffffffffffffffffffffffffffffffffffffff167f17307eab39ab6107e8899845ad3d59bd9653f200f220920489ca2b5937696c3183604051808215151515815260200191505060405180910390a35050565b60006060806060806060600080600960008a81526020019081526020016000206000015414156119be576040517f08c379a00000000000000000000000000000000000000000000000000000000081526004018080602001828103825260148152602001807f50686f746f20646f6573206e6f7420657869737400000000000000000000000081525060200191505060405180910390fd5b6009600089815260200190815260200160002060000154600960008a8152602001908152602001600020600101600960008b8152602001908152602001600020600201600960008c8152602001908152602001600020600301600960008d8152602001908152602001600020600401600960008e8152602001908152602001600020600501600960008f81526020019081526020016000206006015485805480602002602001604051908101604052809291908181526020018280548015611adb57602002820191906000526020600020905b8160009054906101000a900473ffffffffffffffffffffffffffffffffffffffff1673ffffffffffffffffffffffffffffffffffffffff1681526020019060010190808311611a91575b50505050509550848054600181600116156101000203166002900480601f016020809104026020016040519081016040528092919081815260200182805460018160011615610100020316600290048015611b775780601f10611b4c57610100808354040283529160200191611b77565b820191906000526020600020905b815481529060010190602001808311611b5a57829003601f168201915b50505050509450838054600181600116156101000203166002900480601f016020809104026020016040519081016040528092919081815260200182805460018160011615610100020316600290048015611c135780601f10611be857610100808354040283529160200191611c13565b820191906000526020600020905b815481529060010190602001808311611bf657829003601f168201915b50505050509350828054600181600116156101000203166002900480601f016020809104026020016040519081016040528092919081815260200182805460018160011615610100020316600290048015611caf5780601f10611c8457610100808354040283529160200191611caf565b820191906000526020600020905b815481529060010190602001808311611c9257829003601f168201915b50505050509250818054600181600116156101000203166002900480601f016020809104026020016040519081016040528092919081815260200182805460018160011615610100020316600290048015611d4b5780601f10611d2057610100808354040283529160200191611d4b565b820191906000526020600020905b815481529060010190602001808311611d2e57829003601f168201915b505050505091509650965096509650965096509650919395979092949650565b611d76848484610f28565b611d8284848484611f81565b611dd7576040517f08c379a0000000000000000000000000000000000000000000000000000000008152600401808060200182810382526032815260200180612dc06032913960400191505060405180910390fd5b50505050565b6000600460008473ffffffffffffffffffffffffffffffffffffffff1673ffffffffffffffffffffffffffffffffffffffff16815260200190815260200160002060008373ffffffffffffffffffffffffffffffffffffffff1673ffffffffffffffffffffffffffffffffffffffff16815260200190815260200160002060009054906101000a900460ff16905092915050565b6000806001600084815260200190815260200160002060009054906101000a900473ffffffffffffffffffffffffffffffffffffffff169050600073ffffffffffffffffffffffffffffffffffffffff168173ffffffffffffffffffffffffffffffffffffffff161415915050919050565b611eed338261216a565b611f42576040517f08c379a0000000000000000000000000000000000000000000000000000000008152600401808060200182810382526031815260200180612f436031913960400191505060405180910390fd5b611f4d83838361225e565b505050565b600081600001549050919050565b611f6a8282612282565b611f74828261249a565b611f7d81612561565b5050565b6000611fa28473ffffffffffffffffffffffffffffffffffffffff166125ad565b611faf5760019050612162565b60008473ffffffffffffffffffffffffffffffffffffffff1663150b7a02338887876040518563ffffffff1660e01b8152600401808573ffffffffffffffffffffffffffffffffffffffff1673ffffffffffffffffffffffffffffffffffffffff1681526020018473ffffffffffffffffffffffffffffffffffffffff1673ffffffffffffffffffffffffffffffffffffffff16815260200183815260200180602001828103825283818151815260200191508051906020019080838360005b8381101561208a57808201518184015260208101905061206f565b50505050905090810190601f1680156120b75780820380516001836020036101000a031916815260200191505b5095505050505050602060405180830381600087803b1580156120d957600080fd5b505af11580156120ed573d6000803e3d6000fd5b505050506040513d602081101561210357600080fd5b8101908080519060200190929190505050905063150b7a0260e01b7bffffffffffffffffffffffffffffffffffffffffffffffffffffffff1916817bffffffffffffffffffffffffffffffffffffffffffffffffffffffff1916149150505b949350505050565b600061217582611e71565b6121ca576040517f08c379a000000000000000000000000000000000000000000000000000000000815260040180806020018281038252602c815260200180612e16602c913960400191505060405180910390fd5b60006121d583611254565b90508073ffffffffffffffffffffffffffffffffffffffff168473ffffffffffffffffffffffffffffffffffffffff16148061224457508373ffffffffffffffffffffffffffffffffffffffff1661222c84610ca7565b73ffffffffffffffffffffffffffffffffffffffff16145b8061225557506122548185611ddd565b5b91505092915050565b6122698383836125c0565b612273838261281b565b61227d828261249a565b505050565b600073ffffffffffffffffffffffffffffffffffffffff168273ffffffffffffffffffffffffffffffffffffffff161415612325576040517f08c379a00000000000000000000000000000000000000000000000000000000081526004018080602001828103825260208152602001807f4552433732313a206d696e7420746f20746865207a65726f206164647265737381525060200191505060405180910390fd5b61232e81611e71565b156123a1576040517f08c379a000000000000000000000000000000000000000000000000000000000815260040180806020018281038252601c8152602001807f4552433732313a20746f6b656e20616c7265616479206d696e7465640000000081525060200191505060405180910390fd5b816001600083815260200190815260200160002060006101000a81548173ffffffffffffffffffffffffffffffffffffffff021916908373ffffffffffffffffffffffffffffffffffffffff16021790555061243a600360008473ffffffffffffffffffffffffffffffffffffffff1673ffffffffffffffffffffffffffffffffffffffff1681526020019081526020016000206129b9565b808273ffffffffffffffffffffffffffffffffffffffff16600073ffffffffffffffffffffffffffffffffffffffff167fddf252ad1be2c89b69c2b068fc378daa952ba7f163c4a11628f55a4df523b3ef60405160405180910390a45050565b600560008373ffffffffffffffffffffffffffffffffffffffff1673ffffffffffffffffffffffffffffffffffffffff168152602001908152602001600020805490506006600083815260200190815260200160002081905550600560008373ffffffffffffffffffffffffffffffffffffffff1673ffffffffffffffffffffffffffffffffffffffff1681526020019081526020016000208190806001815401808255809150509060018203906000526020600020016000909192909190915055505050565b6007805490506008600083815260200190815260200160002081905550600781908060018154018082558091505090600182039060005260206000200160009091929091909150555050565b600080823b905060008111915050919050565b8273ffffffffffffffffffffffffffffffffffffffff166125e082611254565b73ffffffffffffffffffffffffffffffffffffffff161461264c576040517f08c379a0000000000000000000000000000000000000000000000000000000008152600401808060200182810382526029815260200180612ef96029913960400191505060405180910390fd5b600073ffffffffffffffffffffffffffffffffffffffff168273ffffffffffffffffffffffffffffffffffffffff1614156126d2576040517f08c379a0000000000000000000000000000000000000000000000000000000008152600401808060200182810382526024815260200180612df26024913960400191505060405180910390fd5b6126db816129cf565b612722600360008573ffffffffffffffffffffffffffffffffffffffff1673ffffffffffffffffffffffffffffffffffffffff168152602001908152602001600020612a8d565b612769600360008473ffffffffffffffffffffffffffffffffffffffff1673ffffffffffffffffffffffffffffffffffffffff1681526020019081526020016000206129b9565b816001600083815260200190815260200160002060006101000a81548173ffffffffffffffffffffffffffffffffffffffff021916908373ffffffffffffffffffffffffffffffffffffffff160217905550808273ffffffffffffffffffffffffffffffffffffffff168473ffffffffffffffffffffffffffffffffffffffff167fddf252ad1be2c89b69c2b068fc378daa952ba7f163c4a11628f55a4df523b3ef60405160405180910390a4505050565b60006128736001600560008673ffffffffffffffffffffffffffffffffffffffff1673ffffffffffffffffffffffffffffffffffffffff16815260200190815260200160002080549050612ab090919063ffffffff16565b9050600060066000848152602001908152602001600020549050818114612960576000600560008673ffffffffffffffffffffffffffffffffffffffff1673ffffffffffffffffffffffffffffffffffffffff16815260200190815260200160002083815481106128e057fe5b9060005260206000200154905080600560008773ffffffffffffffffffffffffffffffffffffffff1673ffffffffffffffffffffffffffffffffffffffff168152602001908152602001600020838154811061293857fe5b9060005260206000200181905550816006600083815260200190815260200160002081905550505b600560008573ffffffffffffffffffffffffffffffffffffffff1673ffffffffffffffffffffffffffffffffffffffff1681526020019081526020016000208054809190600190036129b29190612d00565b5050505050565b6001816000016000828254019250508190555050565b600073ffffffffffffffffffffffffffffffffffffffff166002600083815260200190815260200160002060009054906101000a900473ffffffffffffffffffffffffffffffffffffffff1673ffffffffffffffffffffffffffffffffffffffff1614612a8a5760006002600083815260200190815260200160002060006101000a81548173ffffffffffffffffffffffffffffffffffffffff021916908373ffffffffffffffffffffffffffffffffffffffff1602179055505b50565b612aa560018260000154612ab090919063ffffffff16565b816000018190555050565b600082821115612b28576040517f08c379a000000000000000000000000000000000000000000000000000000000815260040180806020018281038252601e8152602001807f536166654d6174683a207375627472616374696f6e206f766572666c6f77000081525060200191505060405180910390fd5b600082840390508091505092915050565b6040518060e00160405280600081526020016060815260200160608152602001606081526020016060815260200160608152602001600081525090565b828054828255906000526020600020908101928215612bef579160200282015b82811115612bee5782518260006101000a81548173ffffffffffffffffffffffffffffffffffffffff021916908373ffffffffffffffffffffffffffffffffffffffff16021790555091602001919060010190612b96565b5b509050612bfc9190612d2c565b5090565b828054600181600116156101000203166002900490600052602060002090601f016020900481019282601f10612c4157805160ff1916838001178555612c6f565b82800160010185558215612c6f579182015b82811115612c6e578251825591602001919060010190612c53565b5b509050612c7c9190612d6f565b5090565b828054600181600116156101000203166002900490600052602060002090601f016020900481019282601f10612cc157805160ff1916838001178555612cef565b82800160010185558215612cef579182015b82811115612cee578251825591602001919060010190612cd3565b5b509050612cfc9190612d6f565b5090565b815481835581811115612d2757818360005260206000209182019101612d269190612d6f565b5b505050565b612d6c91905b80821115612d6857600081816101000a81549073ffffffffffffffffffffffffffffffffffffffff021916905550600101612d32565b5090565b90565b612d9191905b80821115612d8d576000816000905550600101612d75565b5090565b9056fe455243373231456e756d657261626c653a206f776e657220696e646578206f7574206f6620626f756e64734552433732313a207472616e7366657220746f206e6f6e20455243373231526563656976657220696d706c656d656e7465724552433732313a207472616e7366657220746f20746865207a65726f20616464726573734552433732313a206f70657261746f7220717565727920666f72206e6f6e6578697374656e7420746f6b656e4552433732313a20617070726f76652063616c6c6572206973206e6f74206f776e6572206e6f7220617070726f76656420666f7220616c6c4552433732313a2062616c616e636520717565727920666f7220746865207a65726f20616464726573734552433732313a206f776e657220717565727920666f72206e6f6e6578697374656e7420746f6b656e4552433732313a20617070726f76656420717565727920666f72206e6f6e6578697374656e7420746f6b656e4552433732313a207472616e73666572206f6620746f6b656e2074686174206973206e6f74206f776e4552433732313a20617070726f76616c20746f2063757272656e74206f776e65724552433732313a207472616e736665722063616c6c6572206973206e6f74206f776e6572206e6f7220617070726f766564455243373231456e756d657261626c653a20676c6f62616c20696e646578206f7574206f6620626f756e6473a165627a7a723058201c226ad94ef0d81824d2c1a3ed8668ea12bdcffe2465b165fc425237a1af77450029",
  "source": "pragma solidity ^0.5.6;\n\nimport \"./ERC721/ERC721.sol\";\nimport \"./ERC721/ERC721Enumerable.sol\";\n\ncontract Klaystagram is ERC721, ERC721Enumerable {\n\n    event PhotoUploaded (uint256 indexed tokenId, bytes photo, string title, string location, string description, uint256 timestamp);\n\n    mapping (uint256 => PhotoData) private _photoList;\n\n    struct PhotoData {\n        uint256 tokenId;                       // Unique token id\n        address[] ownerHistory;                // History of all previous owners\n        bytes photo;                           // Image source encoded in uint 8 array format\n        string title;                          // Title of photo\n        string location;                       // Location where photo is taken\n        string description;                    // Short description about the photo\n        uint256 timestamp;                     // Uploaded time\n    }\n\n  /**\n   * @notice _mint() is from ERC721.sol\n   */\n    function uploadPhoto(bytes memory photo, string memory title, string memory location, string memory description) public {\n        uint256 tokenId = totalSupply() + 1;\n\n        _mint(msg.sender, tokenId);\n\n        address[] memory ownerHistory;\n\n        PhotoData memory newPhotoData = PhotoData({\n            tokenId : tokenId,\n            ownerHistory : ownerHistory,\n            photo : photo,\n            title: title,\n            location : location,\n            description : description,\n            timestamp : now\n        });\n\n        _photoList[tokenId] = newPhotoData;\n        _photoList[tokenId].ownerHistory.push(msg.sender);\n\n        emit PhotoUploaded(tokenId, photo, title, location, description, now);\n    }\n\n  /**\n   * @notice safeTransferFrom function checks whether receiver is able to handle ERC721 tokens\n   *  and then it will call transferFrom function defined below\n   */\n    function transferOwnership(uint256 tokenId, address to) public returns(uint, address, address, address) {\n        safeTransferFrom(msg.sender, to, tokenId);\n        uint ownerHistoryLength = _photoList[tokenId].ownerHistory.length;\n        return (\n            _photoList[tokenId].tokenId,\n            //original owner\n            _photoList[tokenId].ownerHistory[0],\n            //previous owner, length cannot be less than 2\n            _photoList[tokenId].ownerHistory[ownerHistoryLength-2],\n            //current owner\n            _photoList[tokenId].ownerHistory[ownerHistoryLength-1]);\n    }\n\n  /**\n   * @notice Recommand using transferOwnership, which uses safeTransferFrom function\n   * @dev Overided transferFrom function to make sure that every time ownership transfers\n   *  new owner address gets pushed into ownerHistory array\n   */\n    function transferFrom(address from, address to, uint256 tokenId) public {\n        super.transferFrom(from, to, tokenId);\n        _photoList[tokenId].ownerHistory.push(to);\n    }\n\n    function getTotalPhotoCount () public view returns (uint) {\n        return totalSupply();\n    }\n\n    function getPhoto (uint tokenId) public view\n    returns(uint256, address[] memory, bytes memory, string memory, string memory, string memory, uint256) {\n        require(_photoList[tokenId].tokenId != 0, \"Photo does not exist\");\n        return (\n            _photoList[tokenId].tokenId,\n            _photoList[tokenId].ownerHistory,\n            _photoList[tokenId].photo,\n            _photoList[tokenId].title,\n            _photoList[tokenId].location,\n            _photoList[tokenId].description,\n            _photoList[tokenId].timestamp);\n    }\n}\n",
  "sourcePath": "/Users/c._.hwan/Dev/klaytn/klaystagram/contracts/Klaystagram.sol",
  "compiler": {
    "name": "solc",
    "version": "0.5.6+commit.b259423e.Emscripten.clang"
  },
  "schemaVersion": "3.3.3",
  "updatedAt": "2022-01-17T12:52:10.762Z",
  "networkType": "ethereum",
  "devdoc": {
    "methods": {
      "approve(address,uint256)": {
        "details": "Approves another address to transfer the given token ID The zero address indicates there is no approved address. There can only be one approved address per token at a given time. Can only be called by the token owner or an approved operator.",
        "params": {
          "to": "address to be approved for the given token ID",
          "tokenId": "uint256 ID of the token to be approved"
        }
      },
      "balanceOf(address)": {
        "details": "Gets the balance of the specified address.",
        "params": {
          "owner": "address to query the balance of"
        },
        "return": "uint256 representing the amount owned by the passed address"
      },
      "getApproved(uint256)": {
        "details": "Gets the approved address for a token ID, or zero if no address set Reverts if the token ID does not exist.",
        "params": {
          "tokenId": "uint256 ID of the token to query the approval of"
        },
        "return": "address currently approved for the given token ID"
      },
      "isApprovedForAll(address,address)": {
        "details": "Tells whether an operator is approved by a given owner.",
        "params": {
          "operator": "operator address which you want to query the approval of",
          "owner": "owner address which you want to query the approval of"
        },
        "return": "bool whether the given operator is approved by the given owner"
      },
      "ownerOf(uint256)": {
        "details": "Gets the owner of the specified token ID.",
        "params": {
          "tokenId": "uint256 ID of the token to query the owner of"
        },
        "return": "address currently marked as the owner of the given token ID"
      },
      "safeTransferFrom(address,address,uint256)": {
        "details": "Safely transfers the ownership of a given token ID to another address If the target address is a contract, it must implement `onERC721Received`, which is called upon a safe transfer, and return the magic value `bytes4(keccak256(\"onERC721Received(address,address,uint256,bytes)\"))`; otherwise, the transfer is reverted. Requires the msg.sender to be the owner, approved, or operator",
        "params": {
          "from": "current owner of the token",
          "to": "address to receive the ownership of the given token ID",
          "tokenId": "uint256 ID of the token to be transferred"
        }
      },
      "safeTransferFrom(address,address,uint256,bytes)": {
        "details": "Safely transfers the ownership of a given token ID to another address If the target address is a contract, it must implement `onERC721Received`, which is called upon a safe transfer, and return the magic value `bytes4(keccak256(\"onERC721Received(address,address,uint256,bytes)\"))`; otherwise, the transfer is reverted. Requires the msg.sender to be the owner, approved, or operator",
        "params": {
          "_data": "bytes data to send along with a safe transfer check",
          "from": "current owner of the token",
          "to": "address to receive the ownership of the given token ID",
          "tokenId": "uint256 ID of the token to be transferred"
        }
      },
      "setApprovalForAll(address,bool)": {
        "details": "Sets or unsets the approval of a given operator An operator is allowed to transfer all tokens of the sender on their behalf.",
        "params": {
          "approved": "representing the status of the approval to be set",
          "to": "operator address to set the approval"
        }
      },
      "supportsInterface(bytes4)": {
        "details": "See `IERC165.supportsInterface`.     * Time complexity O(1), guaranteed to always use less than 30 000 gas."
      },
      "tokenByIndex(uint256)": {
        "details": "Gets the token ID at a given index of all the tokens in this contract Reverts if the index is greater or equal to the total number of tokens.",
        "params": {
          "index": "uint256 representing the index to be accessed of the tokens list"
        },
        "return": "uint256 token ID at the given index of the tokens list"
      },
      "tokenOfOwnerByIndex(address,uint256)": {
        "details": "Gets the token ID at a given index of the tokens list of the requested owner.",
        "params": {
          "index": "uint256 representing the index to be accessed of the requested tokens list",
          "owner": "address owning the tokens list to be accessed"
        },
        "return": "uint256 token ID at the given index of the tokens list owned by the requested address"
      },
      "totalSupply()": {
        "details": "Gets the total amount of tokens stored by the contract.",
        "return": "uint256 representing the total amount of tokens"
      },
      "transferFrom(address,address,uint256)": {
        "details": "Overided transferFrom function to make sure that every time ownership transfers new owner address gets pushed into ownerHistory array"
      }
    }
  },
  "userdoc": {
    "methods": {
      "transferFrom(address,address,uint256)": {
        "notice": "Recommand using transferOwnership, which uses safeTransferFrom function"
      },
      "transferOwnership(uint256,address)": {
        "notice": "safeTransferFrom function checks whether receiver is able to handle ERC721 tokens and then it will call transferFrom function defined below"
      },
      "uploadPhoto(bytes,string,string,string)": {
        "notice": "_mint() is from ERC721.sol"
      }
    }
  }
}